:020000040800F2
:100000000050002021020008270200082B020008EF
:1000100043020008470200085F02000800000000D9
:10002000000000000000000000000000770200084F
:100030007B020008000000007F020008890500081C
:100040009102000891020008910200089102000844
:10005000910200089102000849080008650800089C
:100060009102000891020008910200089102000824
:100070009102000891020008910200089102000814
:100080009102000891020008910200089102000804
:1000900091020008910200089102000891020008F4
:1000A00091020008910200089102000891020008E4
:1000B00091020008910200089102000891020008D4
:1000C00091020008910200089102000891020008C4
:1000D0009102000821050008910200086509000846
:1000E0009109000891020008910200080000000038
:1000F0000000000000000000000000000000000000
:1001000000000000000000005FF808F100B583B0B7
:1001100000F0DEF8304B314A1360314A1360314B46
:10012000314A32498B4204D21168196004330432D7
:10013000F7E72A4B1A682E4B9A4200D0FEE7284B6D
:100140001A682C4B9A42F9D1234B2B4A13602B4A45
:1001500013602B4B02E000221A600433294A9342B9
:10016000F9D3254B1B6813B9244B1B6803B1FEE779
:1001700000F0BAF8694601A800F0A2F8224C234B1F
:10018000E41AA4100025AC4214DC214C214BE41AE3
:10019000A4100025AC4213DC0099019800F098FBF4
:1001A00005461D4C1D4BE41AA410002C0EDC2846FD
:1001B00000F084F8154B53F8253098470135E2E7F5
:1001C000144B53F8253098470135E3E7013C134BB6
:1001D00053F824309847E8E7BABADECA0000002096
:1001E0002800002000000020B80900082C00002092
:1001F00078563412325476982C0000204C0000209F
:100200002C00002050000020BC020008BC020008A6
:10021000BC020008BC020008BC020008BC020008C6
:1002200008B5FFF773FF00BEFEE71EF0040F0CBF1A
:10023000EFF30880EFF309807146124A104700BEC1
:10024000FEE700BEFEE71EF0040F0CBFEFF30880D0
:10025000EFF3098071460C4A104700BEFEE71EF01E
:10026000040F0CBFEFF30880EFF309807146074AD3
:10027000104700BEFEE700BEFEE700BEFEE700BE80
:10028000FEE770473F0200085B02000873020008A7
:0402900000BEFEE7C7
:10029400B8090008000000202C000020B80900085C
:1002A40000000000000000002C000020500000208E
:0802B400000000000000000042
:1002BC00FEE7000001230360014B0B60704700BF99
:1002CC000400002008B500F073F8024A024B9A6053
:1002DC0008BD00BF0000000800ED00E008B500F00C
:1002EC008FF808BD82B00023019300932C4A136849
:1002FC0043F4803313602A4B1B6803F400330093E0
:10030C00019B01330193009B1BB9019BB3F5A06FBB
:10031C00F1D1234B1B6813F4003F06D0012300934B
:10032C00009B012B04D002B0704700230093F7E729
:10033C001C4B1A6842F010021A601A6822F0030271
:10034C001A601A6842F002021A60A3F580535A68C8
:10035C005A605A685A605A6842F480625A605A6805
:10036C0022F47C125A605A6842F4E8125A601A68F5
:10037C0042F080721A600A4B1B6813F0007FFAD0AF
:10038C00074B5A6822F003025A605A6842F0020284
:10039C005A60034B5B6803F00C03082BF9D1C2E7DE
:1003AC00001002400020024008B5FFF79BFF08BD7B
:1003BC0008B5104B1A6842F001021A6059680E4ACF
:1003CC000A405A601A6822F0847222F480321A6051
:1003DC001A6822F480221A605A6822F4FE025A60CB
:1003EC004FF41F029A60FFF7DFFF044B4FF00062DF
:1003FC009A6008BD001002400000FFF800ED00E01C
:10040C001F4B5B6803F00C03042B15D0082B17D083
:10041C001BB11C4B1C4A1A6002E01A4B1A4A1A6098
:10042C00174B5B68C3F30313184AD35CDAB2154954
:10043C000B68D3400B607047124B134A1A60EFE7FE
:10044C000F4A53685268C3F38343023312F4803F5C
:10045C000AD00B4A526812F4003F0BD00C4A02FB34
:10046C0003F3084A1360DBE7094A02FB03F3054A6E
:10047C001360D5E7044A02FB03F3024A1360CFE78B
:10048C00001002401C00002000127A000C0000201A
:10049C0000093D00124B40F241309860DA6842F09E
:1004AC000802DA60DA6842F00402DA60DA6842F4D0
:1004BC000052DA60002119609860DA6842F0080294
:1004CC00DA60DA6842F00402DA60DA6842F4005268
:1004DC00DA601960DA6842F02002DA60704700BF17
:1004EC0000380140002208E0064B1B6813F0800F17
:1004FC00FAD0044B59600132D2B2815C0029F3D19D
:10050C00704700BF00380140014B1860704700BFB6
:10051C004400002010B582B0084C6068084B1B6882
:10052C0098479DF807300133DBB28DF807306368CC
:10053C00DBB28DF8073002B010BD00BF00380140AF
:10054C0044000020014B00221A60704710E000E0CC
:10055C00094B58601A6842F001021A60064B1B687E
:10056C0013F4803FFAD0044B1A6822F001021A608F
:10057C0000225A609A60704710E000E000B583B02A
:10058C000D4B1B785BB90D4B1A6822F002021A60F6
:10059C001A6842F001021A6000225A609A60084BF5
:1005AC001B689847054B1B68C3F300438DF8073055
:1005BC0003B05DF804FB00BF3800002010E000E041
:1005CC003400002008B30268012A01D001207047D2
:1005DC000379012B0AD00E4B1A6822F001021A6023
:1005EC005A6822F001025A6001207047084B1A68C1
:1005FC0042F480321A605A6842F001025A605A681A
:10060C0022F002025A60012070470020704700BFA0
:10061C000010024068B110B40246074841681368E4
:10062C0054682343926813430B434360012010BC6E
:10063C0070470020704700BF0010024010280FD9EF
:10064C00A0F111031D2B16D9A0F12F030E2B1AD8D4
:10065C000E498A69012000FA03F313438B6170473A
:10066C0010B40A4C6169012202FA00F30B43636176
:10067C00104610BC70470549CA69012000FA03F303
:10068C001343CB6170470020704700BF001002403D
:10069C0000F01F02400901239340024A42F8203027
:1006AC00704700BF00E100E000F01F024009012389
:1006BC0093404030014A42F82030704700E100E09E
:1006CC0010B4012827D018B1022847D010BC7047AD
:1006DC00072912D90F29F9D8A1F10804E4B2314B3A
:1006EC001968A4000F20A04021EA000119601868C5
:1006FC0002FA04F101431960E8E72B4B18688900F2
:10070C000F248C4020EA04001860186802FA01F1EA
:10071C0001431960DAE7072912D90F29D6D8A1F1BC
:10072C000800C0B2214B196880000F24844021EAD4
:10073C00040119601C6802FA00F121431960C5E735
:10074C001B4B186889000F248C4020EA04001860A9
:10075C00186802FA01F101431960B7E7072912D9A9
:10076C000F29B3D8A1F10803DBB2124801689B0032
:10077C000F249C4021EA04010160046802FA03F191
:10078C0021430160A2E70C4B186889000F248C40B0
:10079C0020EA04001860186802FA01F1014319609C
:1007AC0094E700BF0408014000080140040C01401C
:1007BC00000C01400410014000100140012812D02F
:1007CC0010B102281ED07047012A06D012BB01239B
:1007DC0003FA01F1134B19607047012303FA01F17D
:1007EC00114B19607047012A06D09AB9012303FAFC
:1007FC0001F10E4B19607047012303FA01F10C4B08
:10080C0019607047012A06D022B9012303FA01F1BD
:10081C00084B19607047012303FA01F1064B19606C
:10082C00704700BF1408014010080140140C01402F
:10083C00100C0140141001401010014008B5044B7D
:10084C001B689847034A536943F00103536108BD81
:10085C003C0000200004014008B5044B1B6898477D
:10086C00034A536943F00103536108BD4000002063
:10087C0000040140412800D0704708B501220C212A
:10088C001046FFF79BFF0248FFF762FE08BD00BF52
:10089C0080841E0010B586B0002405940194029447
:1008AC000394012304938DF8143004A8FFF78AFEF7
:1008BC0001940294039401A8FFF7ACFE0028FDD02C
:1008CC0006B010BD08B5FFF7E5FFFFF73BFE1E4B6A
:1008DC009A6942F004029A619A6942F008029A619C
:1008EC003D20FFF7ABFE2720FFF7D2FE2820FFF7B5
:1008FC00CFFE1648FFF708FE2520FFF7C9FE27207C
:10090C00FFF7D2FE022200210846FFF7D9FE022291
:10091C000C210120FFF7D4FE0B2209210020FFF748
:10092C00CFFE04220A210020FFF7CAFEFFF7B2FD1A
:10093C000748FFF7D7FD0748FFF7D4FD00220C212D
:10094C000120FFF73BFFF3E700100240810800088D
:10095C0020000020B409000808B501220021084637
:10096C00FFF72CFF0548FFF7F3FD054A1378013319
:10097C0013702820FFF798FE08BD00BF80841E006E
:10098C004800002008B501220C211046FFF716FF85
:10099C000348FFF7DDFD034A13780133137008BDDC
:0C09AC0080841E00490000200D0A00009D
:1009B80078563412300000200000000000000000CB
:1009C80000000000010203040607080900A24A0407
:0C09D80041686D656400FFFF32547698A2
:040000050800010DE1
:00000001FF
